{
  "contractName": "StarNotary",
  "abi": [
    {
      "constant": true,
      "inputs": [
        {
          "name": "interfaceId",
          "type": "bytes4"
        }
      ],
      "name": "supportsInterface",
      "outputs": [
        {
          "name": "",
          "type": "bool"
        }
      ],
      "payable": false,
      "stateMutability": "view",
      "type": "function"
    },
    {
      "constant": true,
      "inputs": [
        {
          "name": "",
          "type": "uint256"
        }
      ],
      "name": "starsForSale",
      "outputs": [
        {
          "name": "",
          "type": "uint256"
        }
      ],
      "payable": false,
      "stateMutability": "view",
      "type": "function"
    },
    {
      "constant": true,
      "inputs": [
        {
          "name": "tokenId",
          "type": "uint256"
        }
      ],
      "name": "getApproved",
      "outputs": [
        {
          "name": "",
          "type": "address"
        }
      ],
      "payable": false,
      "stateMutability": "view",
      "type": "function"
    },
    {
      "constant": false,
      "inputs": [
        {
          "name": "to",
          "type": "address"
        },
        {
          "name": "tokenId",
          "type": "uint256"
        }
      ],
      "name": "approve",
      "outputs": [],
      "payable": false,
      "stateMutability": "nonpayable",
      "type": "function"
    },
    {
      "constant": true,
      "inputs": [
        {
          "name": "",
          "type": "uint256"
        }
      ],
      "name": "tokenIdToStarInfo",
      "outputs": [
        {
          "name": "name",
          "type": "string"
        },
        {
          "name": "symbol",
          "type": "string"
        }
      ],
      "payable": false,
      "stateMutability": "view",
      "type": "function"
    },
    {
      "constant": false,
      "inputs": [
        {
          "name": "from",
          "type": "address"
        },
        {
          "name": "to",
          "type": "address"
        },
        {
          "name": "tokenId",
          "type": "uint256"
        }
      ],
      "name": "transferFrom",
      "outputs": [],
      "payable": false,
      "stateMutability": "nonpayable",
      "type": "function"
    },
    {
      "constant": false,
      "inputs": [
        {
          "name": "from",
          "type": "address"
        },
        {
          "name": "to",
          "type": "address"
        },
        {
          "name": "tokenId",
          "type": "uint256"
        }
      ],
      "name": "safeTransferFrom",
      "outputs": [],
      "payable": false,
      "stateMutability": "nonpayable",
      "type": "function"
    },
    {
      "constant": true,
      "inputs": [
        {
          "name": "tokenId",
          "type": "uint256"
        }
      ],
      "name": "ownerOf",
      "outputs": [
        {
          "name": "",
          "type": "address"
        }
      ],
      "payable": false,
      "stateMutability": "view",
      "type": "function"
    },
    {
      "constant": true,
      "inputs": [
        {
          "name": "owner",
          "type": "address"
        }
      ],
      "name": "balanceOf",
      "outputs": [
        {
          "name": "",
          "type": "uint256"
        }
      ],
      "payable": false,
      "stateMutability": "view",
      "type": "function"
    },
    {
      "constant": false,
      "inputs": [
        {
          "name": "to",
          "type": "address"
        },
        {
          "name": "approved",
          "type": "bool"
        }
      ],
      "name": "setApprovalForAll",
      "outputs": [],
      "payable": false,
      "stateMutability": "nonpayable",
      "type": "function"
    },
    {
      "constant": false,
      "inputs": [
        {
          "name": "from",
          "type": "address"
        },
        {
          "name": "to",
          "type": "address"
        },
        {
          "name": "tokenId",
          "type": "uint256"
        },
        {
          "name": "_data",
          "type": "bytes"
        }
      ],
      "name": "safeTransferFrom",
      "outputs": [],
      "payable": false,
      "stateMutability": "nonpayable",
      "type": "function"
    },
    {
      "constant": true,
      "inputs": [
        {
          "name": "owner",
          "type": "address"
        },
        {
          "name": "operator",
          "type": "address"
        }
      ],
      "name": "isApprovedForAll",
      "outputs": [
        {
          "name": "",
          "type": "bool"
        }
      ],
      "payable": false,
      "stateMutability": "view",
      "type": "function"
    },
    {
      "anonymous": false,
      "inputs": [
        {
          "indexed": true,
          "name": "from",
          "type": "address"
        },
        {
          "indexed": true,
          "name": "to",
          "type": "address"
        },
        {
          "indexed": true,
          "name": "tokenId",
          "type": "uint256"
        }
      ],
      "name": "Transfer",
      "type": "event"
    },
    {
      "anonymous": false,
      "inputs": [
        {
          "indexed": true,
          "name": "owner",
          "type": "address"
        },
        {
          "indexed": true,
          "name": "approved",
          "type": "address"
        },
        {
          "indexed": true,
          "name": "tokenId",
          "type": "uint256"
        }
      ],
      "name": "Approval",
      "type": "event"
    },
    {
      "anonymous": false,
      "inputs": [
        {
          "indexed": true,
          "name": "owner",
          "type": "address"
        },
        {
          "indexed": true,
          "name": "operator",
          "type": "address"
        },
        {
          "indexed": false,
          "name": "approved",
          "type": "bool"
        }
      ],
      "name": "ApprovalForAll",
      "type": "event"
    },
    {
      "constant": false,
      "inputs": [
        {
          "name": "_name",
          "type": "string"
        },
        {
          "name": "_tokenId",
          "type": "uint256"
        }
      ],
      "name": "createStar",
      "outputs": [],
      "payable": false,
      "stateMutability": "nonpayable",
      "type": "function"
    },
    {
      "constant": true,
      "inputs": [
        {
          "name": "_tokenId",
          "type": "uint256"
        }
      ],
      "name": "lookUptokenIdToStarInfo",
      "outputs": [
        {
          "name": "",
          "type": "string"
        }
      ],
      "payable": false,
      "stateMutability": "view",
      "type": "function"
    },
    {
      "constant": true,
      "inputs": [
        {
          "name": "_tokenId",
          "type": "uint256"
        }
      ],
      "name": "exchangeStars",
      "outputs": [
        {
          "name": "",
          "type": "string"
        }
      ],
      "payable": false,
      "stateMutability": "pure",
      "type": "function"
    },
    {
      "constant": false,
      "inputs": [
        {
          "name": "_tokenId",
          "type": "uint256"
        },
        {
          "name": "_price",
          "type": "uint256"
        }
      ],
      "name": "putStarUpForSale",
      "outputs": [],
      "payable": false,
      "stateMutability": "nonpayable",
      "type": "function"
    },
    {
      "constant": false,
      "inputs": [
        {
          "name": "_tokenId",
          "type": "uint256"
        }
      ],
      "name": "buyStar",
      "outputs": [],
      "payable": true,
      "stateMutability": "payable",
      "type": "function"
    }
  ],
  "bytecode": "0x608060405261003f6301ffc9a77c01000000000000000000000000000000000000000000000000000000000261007f640100000000026401000000009004565b61007a6380ac58cd7c01000000000000000000000000000000000000000000000000000000000261007f640100000000026401000000009004565b61013c565b63ffffffff7c010000000000000000000000000000000000000000000000000000000002817bffffffffffffffffffffffffffffffffffffffffffffffffffffffff1916141515156100d057600080fd5b6001600080837bffffffffffffffffffffffffffffffffffffffffffffffffffffffff19167bffffffffffffffffffffffffffffffffffffffffffffffffffffffff1916815260200190815260200160002060006101000a81548160ff02191690831515021790555050565b611c4d8061014b6000396000f3006080604052600436106100f1576000357c0100000000000000000000000000000000000000000000000000000000900463ffffffff16806301ffc9a7146100f65780630564b1301461015a578063081812fc1461019b578063095ea7b3146102085780631967fd981461025557806323b872dd146103675780632f1c34ef146103d4578063316a4361146103f457806342842e0e1461042b5780636352211e1461049857806370a08231146105055780639697c0a11461055c578063a22cb465146105cf578063b88d4fde1461061e578063bf9bee08146106d1578063d7830ccb14610777578063e985e9c51461081d575b600080fd5b34801561010257600080fd5b5061014060048036038101908080357bffffffffffffffffffffffffffffffffffffffffffffffffffffffff19169060200190929190505050610898565b604051808215151515815260200191505060405180910390f35b34801561016657600080fd5b50610185600480360381019080803590602001909291905050506108ff565b6040518082815260200191505060405180910390f35b3480156101a757600080fd5b506101c660048036038101908080359060200190929190505050610917565b604051808273ffffffffffffffffffffffffffffffffffffffff1673ffffffffffffffffffffffffffffffffffffffff16815260200191505060405180910390f35b34801561021457600080fd5b50610253600480360381019080803573ffffffffffffffffffffffffffffffffffffffff16906020019092919080359060200190929190505050610968565b005b34801561026157600080fd5b5061028060048036038101908080359060200190929190505050610aad565b604051808060200180602001838103835285818151815260200191508051906020019080838360005b838110156102c45780820151818401526020810190506102a9565b50505050905090810190601f1680156102f15780820380516001836020036101000a031916815260200191505b50838103825284818151815260200191508051906020019080838360005b8381101561032a57808201518184015260208101905061030f565b50505050905090810190601f1680156103575780820380516001836020036101000a031916815260200191505b5094505050505060405180910390f35b34801561037357600080fd5b506103d2600480360381019080803573ffffffffffffffffffffffffffffffffffffffff169060200190929190803573ffffffffffffffffffffffffffffffffffffffff16906020019092919080359060200190929190505050610c01565b005b6103f260048036038101908080359060200190929190505050610cd0565b005b34801561040057600080fd5b506104296004803603810190808035906020019092919080359060200190929190505050610df0565b005b34801561043757600080fd5b50610496600480360381019080803573ffffffffffffffffffffffffffffffffffffffff169060200190929190803573ffffffffffffffffffffffffffffffffffffffff16906020019092919080359060200190929190505050610e4e565b005b3480156104a457600080fd5b506104c360048036038101908080359060200190929190505050610e6f565b604051808273ffffffffffffffffffffffffffffffffffffffff1673ffffffffffffffffffffffffffffffffffffffff16815260200191505060405180910390f35b34801561051157600080fd5b50610546600480360381019080803573ffffffffffffffffffffffffffffffffffffffff169060200190929190505050610eed565b6040518082815260200191505060405180910390f35b34801561056857600080fd5b506105cd600480360381019080803590602001908201803590602001908080601f016020809104026020016040519081016040528093929190818152602001838380828437820191505050505050919291929080359060200190929190505050610f71565b005b3480156105db57600080fd5b5061061c600480360381019080803573ffffffffffffffffffffffffffffffffffffffff169060200190929190803515159060200190929190505050611025565b005b34801561062a57600080fd5b506106cf600480360381019080803573ffffffffffffffffffffffffffffffffffffffff169060200190929190803573ffffffffffffffffffffffffffffffffffffffff16906020019092919080359060200190929190803590602001908201803590602001908080601f0160208091040260200160405190810160405280939291908181526020018383808284378201915050505050509192919290505050611161565b005b3480156106dd57600080fd5b506106fc60048036038101908080359060200190929190505050611189565b6040518080602001828103825283818151815260200191508051906020019080838360005b8381101561073c578082015181840152602081019050610721565b50505050905090810190601f1680156107695780820380516001836020036101000a031916815260200191505b509250505060405180910390f35b34801561078357600080fd5b506107a2600480360381019080803590602001909291905050506111a3565b6040518080602001828103825283818151815260200191508051906020019080838360005b838110156107e25780820151818401526020810190506107c7565b50505050905090810190601f16801561080f5780820380516001836020036101000a031916815260200191505b509250505060405180910390f35b34801561082957600080fd5b5061087e600480360381019080803573ffffffffffffffffffffffffffffffffffffffff169060200190929190803573ffffffffffffffffffffffffffffffffffffffff16906020019092919050505061131e565b604051808215151515815260200191505060405180910390f35b6000806000837bffffffffffffffffffffffffffffffffffffffffffffffffffffffff19167bffffffffffffffffffffffffffffffffffffffffffffffffffffffff1916815260200190815260200160002060009054906101000a900460ff169050919050565b60066020528060005260406000206000915090505481565b6000610922826113b2565b151561092d57600080fd5b6002600083815260200190815260200160002060009054906101000a900473ffffffffffffffffffffffffffffffffffffffff169050919050565b600061097382610e6f565b90508073ffffffffffffffffffffffffffffffffffffffff168373ffffffffffffffffffffffffffffffffffffffff16141515156109b057600080fd5b8073ffffffffffffffffffffffffffffffffffffffff163373ffffffffffffffffffffffffffffffffffffffff1614806109f057506109ef813361131e565b5b15156109fb57600080fd5b826002600084815260200190815260200160002060006101000a81548173ffffffffffffffffffffffffffffffffffffffff021916908373ffffffffffffffffffffffffffffffffffffffff160217905550818373ffffffffffffffffffffffffffffffffffffffff168273ffffffffffffffffffffffffffffffffffffffff167f8c5be1e5ebec7d5bd14f71427d1e84f3dd0314c0f7b2291e5b200ac8c7c3b92560405160405180910390a4505050565b6005602052806000526040600020600091509050806000018054600181600116156101000203166002900480601f016020809104026020016040519081016040528092919081815260200182805460018160011615610100020316600290048015610b595780601f10610b2e57610100808354040283529160200191610b59565b820191906000526020600020905b815481529060010190602001808311610b3c57829003601f168201915b505050505090806001018054600181600116156101000203166002900480601f016020809104026020016040519081016040528092919081815260200182805460018160011615610100020316600290048015610bf75780601f10610bcc57610100808354040283529160200191610bf7565b820191906000526020600020905b815481529060010190602001808311610bda57829003601f168201915b5050505050905082565b610c0b3382611424565b1515610c1657600080fd5b600073ffffffffffffffffffffffffffffffffffffffff168273ffffffffffffffffffffffffffffffffffffffff1614151515610c5257600080fd5b610c5c83826114b9565b610c6683826115bc565b610c7082826116eb565b808273ffffffffffffffffffffffffffffffffffffffff168473ffffffffffffffffffffffffffffffffffffffff167fddf252ad1be2c89b69c2b068fc378daa952ba7f163c4a11628f55a4df523b3ef60405160405180910390a4505050565b60008060006006600085815260200190815260200160002054111515610cf557600080fd5b60066000848152602001908152602001600020549150610d1483610e6f565b9050813410151515610d2557600080fd5b610d2f81846115bc565b610d3933846116eb565b8073ffffffffffffffffffffffffffffffffffffffff166108fc839081150290604051600060405180830381858888f19350505050158015610d7f573d6000803e3d6000fd5b5081341115610dd2573373ffffffffffffffffffffffffffffffffffffffff166108fc8334039081150290604051600060405180830381858888f19350505050158015610dd0573d6000803e3d6000fd5b505b60006006600085815260200190815260200160002081905550505050565b3373ffffffffffffffffffffffffffffffffffffffff16610e1083610e6f565b73ffffffffffffffffffffffffffffffffffffffff16141515610e3257600080fd5b8060066000848152602001908152602001600020819055505050565b610e6a8383836020604051908101604052806000815250611161565b505050565b6000806001600084815260200190815260200160002060009054906101000a900473ffffffffffffffffffffffffffffffffffffffff169050600073ffffffffffffffffffffffffffffffffffffffff168173ffffffffffffffffffffffffffffffffffffffff1614151515610ee457600080fd5b80915050919050565b60008073ffffffffffffffffffffffffffffffffffffffff168273ffffffffffffffffffffffffffffffffffffffff1614151515610f2a57600080fd5b600360008373ffffffffffffffffffffffffffffffffffffffff1673ffffffffffffffffffffffffffffffffffffffff168152602001908152602001600020549050919050565b610f79611b62565b60408051908101604052808481526020016040805190810160405280600581526020017f4a53544152000000000000000000000000000000000000000000000000000000815250815250905080600560008481526020019081526020016000206000820151816000019080519060200190610ff5929190611b7c565b506020820151816001019080519060200190611012929190611b7c565b509050506110203383611845565b505050565b3373ffffffffffffffffffffffffffffffffffffffff168273ffffffffffffffffffffffffffffffffffffffff161415151561106057600080fd5b80600460003373ffffffffffffffffffffffffffffffffffffffff1673ffffffffffffffffffffffffffffffffffffffff16815260200190815260200160002060008473ffffffffffffffffffffffffffffffffffffffff1673ffffffffffffffffffffffffffffffffffffffff16815260200190815260200160002060006101000a81548160ff0219169083151502179055508173ffffffffffffffffffffffffffffffffffffffff163373ffffffffffffffffffffffffffffffffffffffff167f17307eab39ab6107e8899845ad3d59bd9653f200f220920489ca2b5937696c3183604051808215151515815260200191505060405180910390a35050565b61116c848484610c01565b611178848484846118eb565b151561118357600080fd5b50505050565b606060206040519081016040528060008152509050919050565b60606111ad611b62565b60056000848152602001908152602001600020604080519081016040529081600082018054600181600116156101000203166002900480601f0160208091040260200160405190810160405280929190818152602001828054600181600116156101000203166002900480156112645780601f1061123957610100808354040283529160200191611264565b820191906000526020600020905b81548152906001019060200180831161124757829003601f168201915b50505050508152602001600182018054600181600116156101000203166002900480601f0160208091040260200160405190810160405280929190818152602001828054600181600116156101000203166002900480156113065780601f106112db57610100808354040283529160200191611306565b820191906000526020600020905b8154815290600101906020018083116112e957829003601f168201915b50505050508152505090508060000151915050919050565b6000600460008473ffffffffffffffffffffffffffffffffffffffff1673ffffffffffffffffffffffffffffffffffffffff16815260200190815260200160002060008373ffffffffffffffffffffffffffffffffffffffff1673ffffffffffffffffffffffffffffffffffffffff16815260200190815260200160002060009054906101000a900460ff16905092915050565b6000806001600084815260200190815260200160002060009054906101000a900473ffffffffffffffffffffffffffffffffffffffff169050600073ffffffffffffffffffffffffffffffffffffffff168173ffffffffffffffffffffffffffffffffffffffff161415915050919050565b60008061143083610e6f565b90508073ffffffffffffffffffffffffffffffffffffffff168473ffffffffffffffffffffffffffffffffffffffff16148061149f57508373ffffffffffffffffffffffffffffffffffffffff1661148784610917565b73ffffffffffffffffffffffffffffffffffffffff16145b806114b057506114af818561131e565b5b91505092915050565b8173ffffffffffffffffffffffffffffffffffffffff166114d982610e6f565b73ffffffffffffffffffffffffffffffffffffffff161415156114fb57600080fd5b600073ffffffffffffffffffffffffffffffffffffffff166002600083815260200190815260200160002060009054906101000a900473ffffffffffffffffffffffffffffffffffffffff1673ffffffffffffffffffffffffffffffffffffffff161415156115b85760006002600083815260200190815260200160002060006101000a81548173ffffffffffffffffffffffffffffffffffffffff021916908373ffffffffffffffffffffffffffffffffffffffff1602179055505b5050565b8173ffffffffffffffffffffffffffffffffffffffff166115dc82610e6f565b73ffffffffffffffffffffffffffffffffffffffff161415156115fe57600080fd5b6116516001600360008573ffffffffffffffffffffffffffffffffffffffff1673ffffffffffffffffffffffffffffffffffffffff16815260200190815260200160002054611b0d90919063ffffffff16565b600360008473ffffffffffffffffffffffffffffffffffffffff1673ffffffffffffffffffffffffffffffffffffffff1681526020019081526020016000208190555060006001600083815260200190815260200160002060006101000a81548173ffffffffffffffffffffffffffffffffffffffff021916908373ffffffffffffffffffffffffffffffffffffffff1602179055505050565b600073ffffffffffffffffffffffffffffffffffffffff166001600083815260200190815260200160002060009054906101000a900473ffffffffffffffffffffffffffffffffffffffff1673ffffffffffffffffffffffffffffffffffffffff1614151561175957600080fd5b816001600083815260200190815260200160002060006101000a81548173ffffffffffffffffffffffffffffffffffffffff021916908373ffffffffffffffffffffffffffffffffffffffff1602179055506117fe6001600360008573ffffffffffffffffffffffffffffffffffffffff1673ffffffffffffffffffffffffffffffffffffffff16815260200190815260200160002054611b2e90919063ffffffff16565b600360008473ffffffffffffffffffffffffffffffffffffffff1673ffffffffffffffffffffffffffffffffffffffff168152602001908152602001600020819055505050565b600073ffffffffffffffffffffffffffffffffffffffff168273ffffffffffffffffffffffffffffffffffffffff161415151561188157600080fd5b61188b82826116eb565b808273ffffffffffffffffffffffffffffffffffffffff16600073ffffffffffffffffffffffffffffffffffffffff167fddf252ad1be2c89b69c2b068fc378daa952ba7f163c4a11628f55a4df523b3ef60405160405180910390a45050565b60008061190d8573ffffffffffffffffffffffffffffffffffffffff16611b4f565b151561191c5760019150611b04565b8473ffffffffffffffffffffffffffffffffffffffff1663150b7a02338887876040518563ffffffff167c0100000000000000000000000000000000000000000000000000000000028152600401808573ffffffffffffffffffffffffffffffffffffffff1673ffffffffffffffffffffffffffffffffffffffff1681526020018473ffffffffffffffffffffffffffffffffffffffff1673ffffffffffffffffffffffffffffffffffffffff16815260200183815260200180602001828103825283818151815260200191508051906020019080838360005b83811015611a115780820151818401526020810190506119f6565b50505050905090810190601f168015611a3e5780820380516001836020036101000a031916815260200191505b5095505050505050602060405180830381600087803b158015611a6057600080fd5b505af1158015611a74573d6000803e3d6000fd5b505050506040513d6020811015611a8a57600080fd5b8101908080519060200190929190505050905063150b7a027c0100000000000000000000000000000000000000000000000000000000027bffffffffffffffffffffffffffffffffffffffffffffffffffffffff1916817bffffffffffffffffffffffffffffffffffffffffffffffffffffffff19161491505b50949350505050565b600080838311151515611b1f57600080fd5b82840390508091505092915050565b6000808284019050838110151515611b4557600080fd5b8091505092915050565b600080823b905060008111915050919050565b604080519081016040528060608152602001606081525090565b828054600181600116156101000203166002900490600052602060002090601f016020900481019282601f10611bbd57805160ff1916838001178555611beb565b82800160010185558215611beb579182015b82811115611bea578251825591602001919060010190611bcf565b5b509050611bf89190611bfc565b5090565b611c1e91905b80821115611c1a576000816000905550600101611c02565b5090565b905600a165627a7a7230582095956c8b33ec535aaeaabf8692f84b4792865a055981830c74efcc741edeab8e0029",
  "source": "pragma solidity ^0.4.23;\n\nimport 'openzeppelin-solidity/contracts/token/ERC721/ERC721.sol';\n\ncontract StarNotary is ERC721 {\n\n    struct Star {\n        string name;\n        string symbol;\n    }\n\n    //  Add a name and a symbol for your starNotary tokens\n    mapping(uint256 => Star) public tokenIdToStarInfo;\n    mapping(uint256 => uint256) public starsForSale;\n\n    function createStar(string _name, uint256 _tokenId) public {\n        // give a symbol to star\n        Star memory newStar = Star(_name, \"JSTAR\");\n        // Star memory newStar = Star(_name);\n\n        tokenIdToStarInfo[_tokenId] = newStar;\n\n        _mint(msg.sender, _tokenId);\n    }\n\n    /** \n     * Add a function lookUptokenIdToStarInfo, \n     * that looks up the stars using the Token ID, \n     * and then returns the name of the star.\n     */\n    function lookUptokenIdToStarInfo(uint256 _tokenId) public view returns(string)  {\n        // no require as anyone can lookup the star of\n        // their interest\n        Star memory star = tokenIdToStarInfo[_tokenId];\n        // return \"to be done\";\n        return star.name;\n    }\n\n    /**\n    * Add a function called exchangeStars, so 2 users can exchange their star tokens.\n    * Do not worry about the price, just write code to exchange stars between users.\n    */\n    function exchangeStars(uint256 _tokenId) public pure returns(string)  {\n        return \"\";\n    }\n\n    function putStarUpForSale(uint256 _tokenId, uint256 _price) public {\n        require(ownerOf(_tokenId) == msg.sender);\n\n        starsForSale[_tokenId] = _price;\n    }\n\n    function buyStar(uint256 _tokenId) public payable {\n        require(starsForSale[_tokenId] > 0);\n\n        uint256 starCost = starsForSale[_tokenId];\n        address starOwner = ownerOf(_tokenId);\n        require(msg.value >= starCost);\n\n        _removeTokenFrom(starOwner, _tokenId);\n        _addTokenTo(msg.sender, _tokenId);\n\n        starOwner.transfer(starCost);\n\n        if(msg.value > starCost) {\n            msg.sender.transfer(msg.value - starCost);\n        }\n        starsForSale[_tokenId] = 0;\n      }\n\n// Write a function to Transfer a Star. The function should transfer a star from the address of the caller.\n// The function should accept 2 arguments, the address to transfer the star to, and the token ID of the star.\n//\n\n}\n",
  "sourcePath": "/Users/jaydeepw/git-repos/nanodegree-blockchain-project5-decentralized-notary-service/project5/contracts/starNotary.sol",
  "compiler": {
    "name": "solc",
    "version": "0.4.25+commit.59dbf8f1.Emscripten.clang"
  },
  "schemaVersion": "2.0.2",
  "updatedAt": "2019-01-22T11:47:34.975Z"
}